{
  "contractName": "Certify",
  "abi": [
    {
      "inputs": [],
      "payable": false,
      "stateMutability": "nonpayable",
      "type": "constructor"
    },
    {
      "anonymous": false,
      "inputs": [
        {
          "indexed": false,
          "internalType": "uint256",
          "name": "id",
          "type": "uint256"
        },
        {
          "indexed": false,
          "internalType": "string",
          "name": "profile",
          "type": "string"
        },
        {
          "indexed": false,
          "internalType": "string",
          "name": "uid",
          "type": "string"
        },
        {
          "indexed": false,
          "internalType": "string",
          "name": "name",
          "type": "string"
        },
        {
          "indexed": false,
          "internalType": "string",
          "name": "email",
          "type": "string"
        },
        {
          "indexed": false,
          "internalType": "address",
          "name": "wallet",
          "type": "address"
        }
      ],
      "name": "register",
      "type": "event"
    },
    {
      "anonymous": false,
      "inputs": [
        {
          "indexed": false,
          "internalType": "uint256",
          "name": "count",
          "type": "uint256"
        },
        {
          "indexed": false,
          "internalType": "string",
          "name": "suid",
          "type": "string"
        },
        {
          "indexed": false,
          "internalType": "string",
          "name": "cuid",
          "type": "string"
        },
        {
          "indexed": false,
          "internalType": "string",
          "name": "certType",
          "type": "string"
        },
        {
          "indexed": false,
          "internalType": "string",
          "name": "compCertHash",
          "type": "string"
        },
        {
          "indexed": false,
          "internalType": "string",
          "name": "uplName",
          "type": "string"
        },
        {
          "indexed": false,
          "internalType": "string",
          "name": "uplProfile",
          "type": "string"
        },
        {
          "indexed": false,
          "internalType": "string",
          "name": "time",
          "type": "string"
        }
      ],
      "name": "sendCert",
      "type": "event"
    },
    {
      "anonymous": false,
      "inputs": [
        {
          "indexed": false,
          "internalType": "uint256",
          "name": "certCount",
          "type": "uint256"
        },
        {
          "indexed": false,
          "internalType": "string",
          "name": "uid",
          "type": "string"
        },
        {
          "indexed": false,
          "internalType": "string",
          "name": "certType",
          "type": "string"
        },
        {
          "indexed": false,
          "internalType": "string",
          "name": "certHash",
          "type": "string"
        },
        {
          "indexed": false,
          "internalType": "address",
          "name": "uploader",
          "type": "address"
        },
        {
          "indexed": false,
          "internalType": "string",
          "name": "time",
          "type": "string"
        }
      ],
      "name": "store",
      "type": "event"
    },
    {
      "constant": true,
      "inputs": [
        {
          "internalType": "uint256",
          "name": "",
          "type": "uint256"
        }
      ],
      "name": "certificates",
      "outputs": [
        {
          "internalType": "uint256",
          "name": "certCount",
          "type": "uint256"
        },
        {
          "internalType": "string",
          "name": "uid",
          "type": "string"
        },
        {
          "internalType": "string",
          "name": "certType",
          "type": "string"
        },
        {
          "internalType": "string",
          "name": "certHash",
          "type": "string"
        },
        {
          "internalType": "address",
          "name": "uploader",
          "type": "address"
        },
        {
          "internalType": "string",
          "name": "time",
          "type": "string"
        }
      ],
      "payable": false,
      "stateMutability": "view",
      "type": "function"
    },
    {
      "constant": true,
      "inputs": [
        {
          "internalType": "uint256",
          "name": "",
          "type": "uint256"
        }
      ],
      "name": "companyCert",
      "outputs": [
        {
          "internalType": "uint256",
          "name": "count",
          "type": "uint256"
        },
        {
          "internalType": "string",
          "name": "suid",
          "type": "string"
        },
        {
          "internalType": "string",
          "name": "cuid",
          "type": "string"
        },
        {
          "internalType": "string",
          "name": "certType",
          "type": "string"
        },
        {
          "internalType": "string",
          "name": "compCertHash",
          "type": "string"
        },
        {
          "internalType": "string",
          "name": "uplName",
          "type": "string"
        },
        {
          "internalType": "string",
          "name": "uplProfile",
          "type": "string"
        },
        {
          "internalType": "string",
          "name": "time",
          "type": "string"
        }
      ],
      "payable": false,
      "stateMutability": "view",
      "type": "function"
    },
    {
      "constant": true,
      "inputs": [],
      "name": "companyCertCount",
      "outputs": [
        {
          "internalType": "uint256",
          "name": "",
          "type": "uint256"
        }
      ],
      "payable": false,
      "stateMutability": "view",
      "type": "function"
    },
    {
      "constant": true,
      "inputs": [],
      "name": "globalCertCount",
      "outputs": [
        {
          "internalType": "uint256",
          "name": "",
          "type": "uint256"
        }
      ],
      "payable": false,
      "stateMutability": "view",
      "type": "function"
    },
    {
      "constant": true,
      "inputs": [],
      "name": "registrationCount",
      "outputs": [
        {
          "internalType": "uint256",
          "name": "",
          "type": "uint256"
        }
      ],
      "payable": false,
      "stateMutability": "view",
      "type": "function"
    },
    {
      "constant": true,
      "inputs": [
        {
          "internalType": "uint256",
          "name": "",
          "type": "uint256"
        }
      ],
      "name": "students",
      "outputs": [
        {
          "internalType": "uint256",
          "name": "id",
          "type": "uint256"
        },
        {
          "internalType": "string",
          "name": "profile",
          "type": "string"
        },
        {
          "internalType": "string",
          "name": "uid",
          "type": "string"
        },
        {
          "internalType": "string",
          "name": "name",
          "type": "string"
        },
        {
          "internalType": "string",
          "name": "email",
          "type": "string"
        },
        {
          "internalType": "address",
          "name": "wallet",
          "type": "address"
        }
      ],
      "payable": false,
      "stateMutability": "view",
      "type": "function"
    },
    {
      "constant": false,
      "inputs": [
        {
          "internalType": "string",
          "name": "_profile",
          "type": "string"
        },
        {
          "internalType": "string",
          "name": "_uid",
          "type": "string"
        },
        {
          "internalType": "string",
          "name": "_name",
          "type": "string"
        },
        {
          "internalType": "string",
          "name": "_email",
          "type": "string"
        }
      ],
      "name": "Register",
      "outputs": [],
      "payable": false,
      "stateMutability": "nonpayable",
      "type": "function"
    },
    {
      "constant": false,
      "inputs": [
        {
          "internalType": "string",
          "name": "_uid",
          "type": "string"
        },
        {
          "internalType": "string",
          "name": "_certType",
          "type": "string"
        },
        {
          "internalType": "string",
          "name": "_certHash",
          "type": "string"
        },
        {
          "internalType": "string",
          "name": "_time",
          "type": "string"
        }
      ],
      "name": "Upload",
      "outputs": [],
      "payable": false,
      "stateMutability": "nonpayable",
      "type": "function"
    },
    {
      "constant": false,
      "inputs": [
        {
          "internalType": "string",
          "name": "_suid",
          "type": "string"
        },
        {
          "internalType": "string",
          "name": "_cuid",
          "type": "string"
        },
        {
          "internalType": "string",
          "name": "_certType",
          "type": "string"
        },
        {
          "internalType": "string",
          "name": "_compCertHash",
          "type": "string"
        },
        {
          "internalType": "string",
          "name": "_uplName",
          "type": "string"
        },
        {
          "internalType": "string",
          "name": "_uplProfile",
          "type": "string"
        },
        {
          "internalType": "string",
          "name": "_time",
          "type": "string"
        }
      ],
      "name": "Send",
      "outputs": [],
      "payable": false,
      "stateMutability": "nonpayable",
      "type": "function"
    }
  ],
  "bytecode": "0x6080604052600080556000600155600060025534801561001e57600080fd5b506128738061002e6000396000f3fe608060405234801561001057600080fd5b50600436106100935760003560e01c806380f2ccd41161006657806380f2ccd414610836578063ab358d4514610ab6578063b08bc87814610ad4578063b182b96314610af2578063d3608bb414610d7257610093565b806306ead22e146100985780630d3eafd6146102bd5780633c8757d4146102db578063663b3e2214610611575b600080fd5b6100c4600480360360208110156100ae57600080fd5b81019080803590602001909291905050506111b7565b60405180878152602001806020018060200180602001806020018673ffffffffffffffffffffffffffffffffffffffff1673ffffffffffffffffffffffffffffffffffffffff16815260200185810385528a818151815260200191508051906020019080838360005b8381101561014857808201518184015260208101905061012d565b50505050905090810190601f1680156101755780820380516001836020036101000a031916815260200191505b50858103845289818151815260200191508051906020019080838360005b838110156101ae578082015181840152602081019050610193565b50505050905090810190601f1680156101db5780820380516001836020036101000a031916815260200191505b50858103835288818151815260200191508051906020019080838360005b838110156102145780820151818401526020810190506101f9565b50505050905090810190601f1680156102415780820380516001836020036101000a031916815260200191505b50858103825287818151815260200191508051906020019080838360005b8381101561027a57808201518184015260208101905061025f565b50505050905090810190601f1680156102a75780820380516001836020036101000a031916815260200191505b509a505050505050505050505060405180910390f35b6102c5611473565b6040518082815260200191505060405180910390f35b610307600480360360208110156102f157600080fd5b8101908080359060200190929190505050611479565b604051808981526020018060200180602001806020018060200180602001806020018060200188810388528f818151815260200191508051906020019080838360005b8381101561036557808201518184015260208101905061034a565b50505050905090810190601f1680156103925780820380516001836020036101000a031916815260200191505b5088810387528e818151815260200191508051906020019080838360005b838110156103cb5780820151818401526020810190506103b0565b50505050905090810190601f1680156103f85780820380516001836020036101000a031916815260200191505b5088810386528d818151815260200191508051906020019080838360005b83811015610431578082015181840152602081019050610416565b50505050905090810190601f16801561045e5780820380516001836020036101000a031916815260200191505b5088810385528c818151815260200191508051906020019080838360005b8381101561049757808201518184015260208101905061047c565b50505050905090810190601f1680156104c45780820380516001836020036101000a031916815260200191505b5088810384528b818151815260200191508051906020019080838360005b838110156104fd5780820151818401526020810190506104e2565b50505050905090810190601f16801561052a5780820380516001836020036101000a031916815260200191505b5088810383528a818151815260200191508051906020019080838360005b83811015610563578082015181840152602081019050610548565b50505050905090810190601f1680156105905780820380516001836020036101000a031916815260200191505b50888103825289818151815260200191508051906020019080838360005b838110156105c95780820151818401526020810190506105ae565b50505050905090810190601f1680156105f65780820380516001836020036101000a031916815260200191505b509f5050505050505050505050505050505060405180910390f35b61063d6004803603602081101561062757600080fd5b81019080803590602001909291905050506118e9565b604051808781526020018060200180602001806020018673ffffffffffffffffffffffffffffffffffffffff1673ffffffffffffffffffffffffffffffffffffffff1681526020018060200185810385528a818151815260200191508051906020019080838360005b838110156106c15780820151818401526020810190506106a6565b50505050905090810190601f1680156106ee5780820380516001836020036101000a031916815260200191505b50858103845289818151815260200191508051906020019080838360005b8381101561072757808201518184015260208101905061070c565b50505050905090810190601f1680156107545780820380516001836020036101000a031916815260200191505b50858103835288818151815260200191508051906020019080838360005b8381101561078d578082015181840152602081019050610772565b50505050905090810190601f1680156107ba5780820380516001836020036101000a031916815260200191505b50858103825286818151815260200191508051906020019080838360005b838110156107f35780820151818401526020810190506107d8565b50505050905090810190601f1680156108205780820380516001836020036101000a031916815260200191505b509a505050505050505050505060405180910390f35b610ab46004803603608081101561084c57600080fd5b810190808035906020019064010000000081111561086957600080fd5b82018360208201111561087b57600080fd5b8035906020019184600183028401116401000000008311171561089d57600080fd5b91908080601f016020809104026020016040519081016040528093929190818152602001838380828437600081840152601f19601f8201169050808301925050505050505091929192908035906020019064010000000081111561090057600080fd5b82018360208201111561091257600080fd5b8035906020019184600183028401116401000000008311171561093457600080fd5b91908080601f016020809104026020016040519081016040528093929190818152602001838380828437600081840152601f19601f8201169050808301925050505050505091929192908035906020019064010000000081111561099757600080fd5b8201836020820111156109a957600080fd5b803590602001918460018302840111640100000000831117156109cb57600080fd5b91908080601f016020809104026020016040519081016040528093929190818152602001838380828437600081840152601f19601f82011690508083019250505050505050919291929080359060200190640100000000811115610a2e57600080fd5b820183602082011115610a4057600080fd5b80359060200191846001830284011164010000000083111715610a6257600080fd5b91908080601f016020809104026020016040519081016040528093929190818152602001838380828437600081840152601f19601f820116905080830192505050505050509192919290505050611ba5565b005b610abe611f30565b6040518082815260200191505060405180910390f35b610adc611f36565b6040518082815260200191505060405180910390f35b610d7060048036036080811015610b0857600080fd5b8101908080359060200190640100000000811115610b2557600080fd5b820183602082011115610b3757600080fd5b80359060200191846001830284011164010000000083111715610b5957600080fd5b91908080601f016020809104026020016040519081016040528093929190818152602001838380828437600081840152601f19601f82011690508083019250505050505050919291929080359060200190640100000000811115610bbc57600080fd5b820183602082011115610bce57600080fd5b80359060200191846001830284011164010000000083111715610bf057600080fd5b91908080601f016020809104026020016040519081016040528093929190818152602001838380828437600081840152601f19601f82011690508083019250505050505050919291929080359060200190640100000000811115610c5357600080fd5b820183602082011115610c6557600080fd5b80359060200191846001830284011164010000000083111715610c8757600080fd5b91908080601f016020809104026020016040519081016040528093929190818152602001838380828437600081840152601f19601f82011690508083019250505050505050919291929080359060200190640100000000811115610cea57600080fd5b820183602082011115610cfc57600080fd5b80359060200191846001830284011164010000000083111715610d1e57600080fd5b91908080601f016020809104026020016040519081016040528093929190818152602001838380828437600081840152601f19601f820116905080830192505050505050509192919290505050611f3c565b005b6111b5600480360360e0811015610d8857600080fd5b8101908080359060200190640100000000811115610da557600080fd5b820183602082011115610db757600080fd5b80359060200191846001830284011164010000000083111715610dd957600080fd5b91908080601f016020809104026020016040519081016040528093929190818152602001838380828437600081840152601f19601f82011690508083019250505050505050919291929080359060200190640100000000811115610e3c57600080fd5b820183602082011115610e4e57600080fd5b80359060200191846001830284011164010000000083111715610e7057600080fd5b91908080601f016020809104026020016040519081016040528093929190818152602001838380828437600081840152601f19601f82011690508083019250505050505050919291929080359060200190640100000000811115610ed357600080fd5b820183602082011115610ee557600080fd5b80359060200191846001830284011164010000000083111715610f0757600080fd5b91908080601f016020809104026020016040519081016040528093929190818152602001838380828437600081840152601f19601f82011690508083019250505050505050919291929080359060200190640100000000811115610f6a57600080fd5b820183602082011115610f7c57600080fd5b80359060200191846001830284011164010000000083111715610f9e57600080fd5b91908080601f016020809104026020016040519081016040528093929190818152602001838380828437600081840152601f19601f8201169050808301925050505050505091929192908035906020019064010000000081111561100157600080fd5b82018360208201111561101357600080fd5b8035906020019184600183028401116401000000008311171561103557600080fd5b91908080601f016020809104026020016040519081016040528093929190818152602001838380828437600081840152601f19601f8201169050808301925050505050505091929192908035906020019064010000000081111561109857600080fd5b8201836020820111156110aa57600080fd5b803590602001918460018302840111640100000000831117156110cc57600080fd5b91908080601f016020809104026020016040519081016040528093929190818152602001838380828437600081840152601f19601f8201169050808301925050505050505091929192908035906020019064010000000081111561112f57600080fd5b82018360208201111561114157600080fd5b8035906020019184600183028401116401000000008311171561116357600080fd5b91908080601f016020809104026020016040519081016040528093929190818152602001838380828437600081840152601f19601f8201169050808301925050505050505091929192905050506122cd565b005b6003602052806000526040600020600091509050806000015490806001018054600181600116156101000203166002900480601f0160208091040260200160405190810160405280929190818152602001828054600181600116156101000203166002900480156112695780601f1061123e57610100808354040283529160200191611269565b820191906000526020600020905b81548152906001019060200180831161124c57829003601f168201915b505050505090806002018054600181600116156101000203166002900480601f0160208091040260200160405190810160405280929190818152602001828054600181600116156101000203166002900480156113075780601f106112dc57610100808354040283529160200191611307565b820191906000526020600020905b8154815290600101906020018083116112ea57829003601f168201915b505050505090806003018054600181600116156101000203166002900480601f0160208091040260200160405190810160405280929190818152602001828054600181600116156101000203166002900480156113a55780601f1061137a576101008083540402835291602001916113a5565b820191906000526020600020905b81548152906001019060200180831161138857829003601f168201915b505050505090806004018054600181600116156101000203166002900480601f0160208091040260200160405190810160405280929190818152602001828054600181600116156101000203166002900480156114435780601f1061141857610100808354040283529160200191611443565b820191906000526020600020905b81548152906001019060200180831161142657829003601f168201915b5050505050908060050160009054906101000a900473ffffffffffffffffffffffffffffffffffffffff16905086565b60005481565b6005602052806000526040600020600091509050806000015490806001018054600181600116156101000203166002900480601f01602080910402602001604051908101604052809291908181526020018280546001816001161561010002031660029004801561152b5780601f106115005761010080835404028352916020019161152b565b820191906000526020600020905b81548152906001019060200180831161150e57829003601f168201915b505050505090806002018054600181600116156101000203166002900480601f0160208091040260200160405190810160405280929190818152602001828054600181600116156101000203166002900480156115c95780601f1061159e576101008083540402835291602001916115c9565b820191906000526020600020905b8154815290600101906020018083116115ac57829003601f168201915b505050505090806003018054600181600116156101000203166002900480601f0160208091040260200160405190810160405280929190818152602001828054600181600116156101000203166002900480156116675780601f1061163c57610100808354040283529160200191611667565b820191906000526020600020905b81548152906001019060200180831161164a57829003601f168201915b505050505090806004018054600181600116156101000203166002900480601f0160208091040260200160405190810160405280929190818152602001828054600181600116156101000203166002900480156117055780601f106116da57610100808354040283529160200191611705565b820191906000526020600020905b8154815290600101906020018083116116e857829003601f168201915b505050505090806005018054600181600116156101000203166002900480601f0160208091040260200160405190810160405280929190818152602001828054600181600116156101000203166002900480156117a35780601f10611778576101008083540402835291602001916117a3565b820191906000526020600020905b81548152906001019060200180831161178657829003601f168201915b505050505090806006018054600181600116156101000203166002900480601f0160208091040260200160405190810160405280929190818152602001828054600181600116156101000203166002900480156118415780601f1061181657610100808354040283529160200191611841565b820191906000526020600020905b81548152906001019060200180831161182457829003601f168201915b505050505090806007018054600181600116156101000203166002900480601f0160208091040260200160405190810160405280929190818152602001828054600181600116156101000203166002900480156118df5780601f106118b4576101008083540402835291602001916118df565b820191906000526020600020905b8154815290600101906020018083116118c257829003601f168201915b5050505050905088565b6004602052806000526040600020600091509050806000015490806001018054600181600116156101000203166002900480601f01602080910402602001604051908101604052809291908181526020018280546001816001161561010002031660029004801561199b5780601f106119705761010080835404028352916020019161199b565b820191906000526020600020905b81548152906001019060200180831161197e57829003601f168201915b505050505090806002018054600181600116156101000203166002900480601f016020809104026020016040519081016040528092919081815260200182805460018160011615610100020316600290048015611a395780601f10611a0e57610100808354040283529160200191611a39565b820191906000526020600020905b815481529060010190602001808311611a1c57829003601f168201915b505050505090806003018054600181600116156101000203166002900480601f016020809104026020016040519081016040528092919081815260200182805460018160011615610100020316600290048015611ad75780601f10611aac57610100808354040283529160200191611ad7565b820191906000526020600020905b815481529060010190602001808311611aba57829003601f168201915b5050505050908060040160009054906101000a900473ffffffffffffffffffffffffffffffffffffffff1690806005018054600181600116156101000203166002900480601f016020809104026020016040519081016040528092919081815260200182805460018160011615610100020316600290048015611b9b5780601f10611b7057610100808354040283529160200191611b9b565b820191906000526020600020905b815481529060010190602001808311611b7e57829003601f168201915b5050505050905086565b6000845111611bb357600080fd5b6000835111611bc157600080fd5b6000825111611bcf57600080fd5b60016000815480929190600101919050555060003390506040518060c0016040528060015481526020018681526020018581526020018481526020018273ffffffffffffffffffffffffffffffffffffffff16815260200183815250600460006001548152602001908152602001600020600082015181600001556020820151816001019080519060200190611c66929190612799565b506040820151816002019080519060200190611c83929190612799565b506060820151816003019080519060200190611ca0929190612799565b5060808201518160040160006101000a81548173ffffffffffffffffffffffffffffffffffffffff021916908373ffffffffffffffffffffffffffffffffffffffff16021790555060a0820151816005019080519060200190611d04929190612799565b509050507ff105b2a78465a3d922d442f3db57768c2389a84acda715b4cfb72565f892deea6001548686868587604051808781526020018060200180602001806020018673ffffffffffffffffffffffffffffffffffffffff1673ffffffffffffffffffffffffffffffffffffffff1681526020018060200185810385528a818151815260200191508051906020019080838360005b83811015611db5578082015181840152602081019050611d9a565b50505050905090810190601f168015611de25780820380516001836020036101000a031916815260200191505b50858103845289818151815260200191508051906020019080838360005b83811015611e1b578082015181840152602081019050611e00565b50505050905090810190601f168015611e485780820380516001836020036101000a031916815260200191505b50858103835288818151815260200191508051906020019080838360005b83811015611e81578082015181840152602081019050611e66565b50505050905090810190601f168015611eae5780820380516001836020036101000a031916815260200191505b50858103825286818151815260200191508051906020019080838360005b83811015611ee7578082015181840152602081019050611ecc565b50505050905090810190601f168015611f145780820380516001836020036101000a031916815260200191505b509a505050505050505050505060405180910390a15050505050565b60015481565b60025481565b6000845111611f4a57600080fd5b6000835111611f5857600080fd5b6000825111611f6657600080fd5b6000815111611f7457600080fd5b60008081548092919060010191905055506040518060c0016040528060005481526020018581526020018481526020018381526020018281526020013373ffffffffffffffffffffffffffffffffffffffff168152506003600080548152602001908152602001600020600082015181600001556020820151816001019080519060200190612004929190612799565b506040820151816002019080519060200190612021929190612799565b50606082015181600301908051906020019061203e929190612799565b50608082015181600401908051906020019061205b929190612799565b5060a08201518160050160006101000a81548173ffffffffffffffffffffffffffffffffffffffff021916908373ffffffffffffffffffffffffffffffffffffffff1602179055509050507f572187796b114511853bfeadb6f084e0e2dfb64d591edb6815a21f0df178c6e3600054858585853360405180878152602001806020018060200180602001806020018673ffffffffffffffffffffffffffffffffffffffff1673ffffffffffffffffffffffffffffffffffffffff16815260200185810385528a818151815260200191508051906020019080838360005b83811015612153578082015181840152602081019050612138565b50505050905090810190601f1680156121805780820380516001836020036101000a031916815260200191505b50858103845289818151815260200191508051906020019080838360005b838110156121b957808201518184015260208101905061219e565b50505050905090810190601f1680156121e65780820380516001836020036101000a031916815260200191505b50858103835288818151815260200191508051906020019080838360005b8381101561221f578082015181840152602081019050612204565b50505050905090810190601f16801561224c5780820380516001836020036101000a031916815260200191505b50858103825287818151815260200191508051906020019080838360005b8381101561228557808201518184015260208101905061226a565b50505050905090810190601f1680156122b25780820380516001836020036101000a031916815260200191505b509a505050505050505050505060405180910390a150505050565b60008651116122db57600080fd5b60008751116122e957600080fd5b60008551116122f757600080fd5b600084511161230557600080fd5b600083511161231357600080fd5b600082511161232157600080fd5b6002600081548092919060010191905055506040518061010001604052806002548152602001888152602001878152602001868152602001858152602001848152602001838152602001828152506005600060025481526020019081526020016000206000820151816000015560208201518160010190805190602001906123aa929190612799565b5060408201518160020190805190602001906123c7929190612799565b5060608201518160030190805190602001906123e4929190612799565b506080820151816004019080519060200190612401929190612799565b5060a082015181600501908051906020019061241e929190612799565b5060c082015181600601908051906020019061243b929190612799565b5060e0820151816007019080519060200190612458929190612799565b509050507fc98987a5f667c812b0d5ca0a676c05c70faba38d8c240444b4a9c99f54814bf160025488888888888888604051808981526020018060200180602001806020018060200180602001806020018060200188810388528f818151815260200191508051906020019080838360005b838110156124e55780820151818401526020810190506124ca565b50505050905090810190601f1680156125125780820380516001836020036101000a031916815260200191505b5088810387528e818151815260200191508051906020019080838360005b8381101561254b578082015181840152602081019050612530565b50505050905090810190601f1680156125785780820380516001836020036101000a031916815260200191505b5088810386528d818151815260200191508051906020019080838360005b838110156125b1578082015181840152602081019050612596565b50505050905090810190601f1680156125de5780820380516001836020036101000a031916815260200191505b5088810385528c818151815260200191508051906020019080838360005b838110156126175780820151818401526020810190506125fc565b50505050905090810190601f1680156126445780820380516001836020036101000a031916815260200191505b5088810384528b818151815260200191508051906020019080838360005b8381101561267d578082015181840152602081019050612662565b50505050905090810190601f1680156126aa5780820380516001836020036101000a031916815260200191505b5088810383528a818151815260200191508051906020019080838360005b838110156126e35780820151818401526020810190506126c8565b50505050905090810190601f1680156127105780820380516001836020036101000a031916815260200191505b50888103825289818151815260200191508051906020019080838360005b8381101561274957808201518184015260208101905061272e565b50505050905090810190601f1680156127765780820380516001836020036101000a031916815260200191505b509f5050505050505050505050505050505060405180910390a150505050505050565b828054600181600116156101000203166002900490600052602060002090601f016020900481019282601f106127da57805160ff1916838001178555612808565b82800160010185558215612808579182015b828111156128075782518255916020019190600101906127ec565b5b5090506128159190612819565b5090565b61283b91905b8082111561283757600081600090555060010161281f565b5090565b9056fea265627a7a72315820aaccf9a117aa5f56890944d74d4f39cdb06c7c238c43ef91620614626c983ff764736f6c63430005100032",
  "source": "pragma solidity ^0.5.0;\n\ncontract Certify {\n    uint public registrationCount = 0;\n    uint public globalCertCount = 0;\n    uint public companyCertCount = 0;\n\n    struct Student{\n      uint id;\n      string profile;\n      string uid;\n      string name;\n      string email;\n      address wallet;\n    }\n\n    mapping(uint => Student) public students;\n\n    event register(\n      uint id,\n      string profile,\n      string uid,\n      string name,\n      string email,\n      address wallet\n    );\n\n    struct certificate{\n      uint certCount;\n      string uid;\n      string certType;\n      string certHash;\n      address uploader;\n      string time;\n    }\n\n    mapping(uint => certificate) public certificates;\n\n    event store(\n      uint certCount,\n      string uid,\n      string certType,\n      string certHash,\n      address uploader,\n      string time\n    );\n\n    struct company{\n      uint count;\n      string suid;\n      string cuid;\n      string certType;\n      string compCertHash;\n      string uplName;\n      string uplProfile;\n      string time;\n    }\n\n    mapping(uint => company) public companyCert;\n\n    event sendCert (\n      uint count,\n      string suid,\n      string cuid,\n      string certType,\n      string compCertHash,\n      string uplName,\n      string uplProfile,\n      string time\n    );\n\n\n    constructor() public {\n      //Register(\"Shrishti\",\"shrishtig797@gmail.com\");\n    }\n\n    function Register(string memory _profile, string memory _uid,string memory _name, string memory _email) public {\n\n          //Check if name and email are empty\n          require(bytes(_profile).length >0 );\n          require(bytes(_uid).length >0 );\n          require(bytes(_name).length >0 );\n          require(bytes(_email).length >0 );\n\n          //Increase Registration Count\n          registrationCount ++;\n\n          //Create Event\n          students[registrationCount] = Student(registrationCount, _profile, _uid, _name, _email, msg.sender);\n\n          //Trigger Event\n          emit register(registrationCount, _profile, _uid, _name, _email, msg.sender);\n    }\n\n\n    function Upload(string memory _uid, string memory _certType, string memory _certHash, string memory _time) public {\n\n          //Check if uid and certHash are empty\n          require(bytes(_uid).length >0 );\n          require(bytes(_certType).length >0 );\n          require(bytes(_certHash).length >0 );\n\n          //Increase globalCertCount\n          globalCertCount ++;\n\n          address uploader = msg.sender;\n          //Create event\n          certificates[globalCertCount] = certificate(globalCertCount, _uid, _certType, _certHash, uploader, _time);\n\n          //Trigger event\n          emit store(globalCertCount, _uid, _certType, _certHash, uploader, _time);\n\n    }\n\n    function Send( string memory _suid, string memory _cuid, string memory _certType, string memory _compCertHash, string memory _uplName, string memory _uplProfile, string memory _time) public {\n      //Check if uid and certHash are empty\n      require(bytes(_cuid).length >0 );\n      require(bytes(_suid).length >0 );\n      require(bytes(_certType).length >0 );\n      require(bytes(_compCertHash).length >0 );\n      require(bytes(_uplName).length >0 );\n      require(bytes(_uplProfile).length >0 );\n\n      //Increase globalCertCount\n      companyCertCount ++;\n\n      //Create event\n      companyCert[companyCertCount] = company(companyCertCount, _suid, _cuid, _certType, _compCertHash, _uplName, _uplProfile, _time);\n\n      //Trigger event\n      emit sendCert(companyCertCount, _suid, _cuid, _certType, _compCertHash, _uplName, _uplProfile, _time);\n    }\n\n}\n",
  "sourcePath": "/home/shrish/Projects/cert_start/src/contracts/Certify.sol",
  "compiler": {
    "name": "solc",
    "version": "0.5.16+commit.9c3226ce.Emscripten.clang"
  },
  "schemaVersion": "3.0.23",
  "updatedAt": "2020-06-01T14:33:29.404Z",
  "networkType": "ethereum",
  "devdoc": {
    "methods": {}
  },
  "userdoc": {
    "methods": {}
  }
}