{
  "contractName": "Certify",
  "abi": [
    {
      "inputs": [],
      "payable": false,
      "stateMutability": "nonpayable",
      "type": "constructor"
    },
    {
      "anonymous": false,
      "inputs": [
        {
          "indexed": false,
          "internalType": "uint256",
          "name": "id",
          "type": "uint256"
        },
        {
          "indexed": false,
          "internalType": "string",
          "name": "profile",
          "type": "string"
        },
        {
          "indexed": false,
          "internalType": "string",
          "name": "uid",
          "type": "string"
        },
        {
          "indexed": false,
          "internalType": "string",
          "name": "name",
          "type": "string"
        },
        {
          "indexed": false,
          "internalType": "string",
          "name": "email",
          "type": "string"
        },
        {
          "indexed": false,
          "internalType": "address",
          "name": "wallet",
          "type": "address"
        }
      ],
      "name": "register",
      "type": "event"
    },
    {
      "anonymous": false,
      "inputs": [
        {
          "indexed": false,
          "internalType": "uint256",
          "name": "count",
          "type": "uint256"
        },
        {
          "indexed": false,
          "internalType": "string",
          "name": "suid",
          "type": "string"
        },
        {
          "indexed": false,
          "internalType": "string",
          "name": "cuid",
          "type": "string"
        },
        {
          "indexed": false,
          "internalType": "string",
          "name": "compCertHash",
          "type": "string"
        }
      ],
      "name": "sendCert",
      "type": "event"
    },
    {
      "anonymous": false,
      "inputs": [
        {
          "indexed": false,
          "internalType": "uint256",
          "name": "certCount",
          "type": "uint256"
        },
        {
          "indexed": false,
          "internalType": "string",
          "name": "uid",
          "type": "string"
        },
        {
          "indexed": false,
          "internalType": "string",
          "name": "certHash",
          "type": "string"
        },
        {
          "indexed": false,
          "internalType": "address",
          "name": "uploader",
          "type": "address"
        }
      ],
      "name": "store",
      "type": "event"
    },
    {
      "constant": true,
      "inputs": [
        {
          "internalType": "uint256",
          "name": "",
          "type": "uint256"
        }
      ],
      "name": "certificates",
      "outputs": [
        {
          "internalType": "uint256",
          "name": "certCount",
          "type": "uint256"
        },
        {
          "internalType": "string",
          "name": "uid",
          "type": "string"
        },
        {
          "internalType": "string",
          "name": "certHash",
          "type": "string"
        },
        {
          "internalType": "address",
          "name": "uploader",
          "type": "address"
        }
      ],
      "payable": false,
      "stateMutability": "view",
      "type": "function"
    },
    {
      "constant": true,
      "inputs": [
        {
          "internalType": "uint256",
          "name": "",
          "type": "uint256"
        }
      ],
      "name": "companyCert",
      "outputs": [
        {
          "internalType": "uint256",
          "name": "count",
          "type": "uint256"
        },
        {
          "internalType": "string",
          "name": "suid",
          "type": "string"
        },
        {
          "internalType": "string",
          "name": "cuid",
          "type": "string"
        },
        {
          "internalType": "string",
          "name": "compCertHash",
          "type": "string"
        }
      ],
      "payable": false,
      "stateMutability": "view",
      "type": "function"
    },
    {
      "constant": true,
      "inputs": [],
      "name": "companyCertCount",
      "outputs": [
        {
          "internalType": "uint256",
          "name": "",
          "type": "uint256"
        }
      ],
      "payable": false,
      "stateMutability": "view",
      "type": "function"
    },
    {
      "constant": true,
      "inputs": [],
      "name": "globalCertCount",
      "outputs": [
        {
          "internalType": "uint256",
          "name": "",
          "type": "uint256"
        }
      ],
      "payable": false,
      "stateMutability": "view",
      "type": "function"
    },
    {
      "constant": true,
      "inputs": [],
      "name": "registrationCount",
      "outputs": [
        {
          "internalType": "uint256",
          "name": "",
          "type": "uint256"
        }
      ],
      "payable": false,
      "stateMutability": "view",
      "type": "function"
    },
    {
      "constant": true,
      "inputs": [
        {
          "internalType": "uint256",
          "name": "",
          "type": "uint256"
        }
      ],
      "name": "students",
      "outputs": [
        {
          "internalType": "uint256",
          "name": "id",
          "type": "uint256"
        },
        {
          "internalType": "string",
          "name": "profile",
          "type": "string"
        },
        {
          "internalType": "string",
          "name": "uid",
          "type": "string"
        },
        {
          "internalType": "string",
          "name": "name",
          "type": "string"
        },
        {
          "internalType": "string",
          "name": "email",
          "type": "string"
        },
        {
          "internalType": "address",
          "name": "wallet",
          "type": "address"
        }
      ],
      "payable": false,
      "stateMutability": "view",
      "type": "function"
    },
    {
      "constant": false,
      "inputs": [
        {
          "internalType": "string",
          "name": "_profile",
          "type": "string"
        },
        {
          "internalType": "string",
          "name": "_uid",
          "type": "string"
        },
        {
          "internalType": "string",
          "name": "_name",
          "type": "string"
        },
        {
          "internalType": "string",
          "name": "_email",
          "type": "string"
        }
      ],
      "name": "Register",
      "outputs": [],
      "payable": false,
      "stateMutability": "nonpayable",
      "type": "function"
    },
    {
      "constant": false,
      "inputs": [
        {
          "internalType": "string",
          "name": "_uid",
          "type": "string"
        },
        {
          "internalType": "string",
          "name": "_certHash",
          "type": "string"
        }
      ],
      "name": "Upload",
      "outputs": [],
      "payable": false,
      "stateMutability": "nonpayable",
      "type": "function"
    },
    {
      "constant": false,
      "inputs": [
        {
          "internalType": "string",
          "name": "_cuid",
          "type": "string"
        },
        {
          "internalType": "string",
          "name": "_suid",
          "type": "string"
        },
        {
          "internalType": "string",
          "name": "_compCertHash",
          "type": "string"
        }
      ],
      "name": "Send",
      "outputs": [],
      "payable": false,
      "stateMutability": "nonpayable",
      "type": "function"
    }
  ],
  "bytecode": "0x6080604052600080556000600155600060025534801561001e57600080fd5b50611b088061002e6000396000f3fe608060405234801561001057600080fd5b50600436106100935760003560e01c80638f296fe9116100665780638f296fe9146105ae578063ab358d4514610700578063b08bc8781461071e578063b182b9631461073c578063cb4f2bc6146109bc57610093565b806306ead22e146100985780630d3eafd6146102bd5780633c8757d4146102db578063663b3e2214610461575b600080fd5b6100c4600480360360208110156100ae57600080fd5b8101908080359060200190929190505050610ba5565b60405180878152602001806020018060200180602001806020018673ffffffffffffffffffffffffffffffffffffffff1673ffffffffffffffffffffffffffffffffffffffff16815260200185810385528a818151815260200191508051906020019080838360005b8381101561014857808201518184015260208101905061012d565b50505050905090810190601f1680156101755780820380516001836020036101000a031916815260200191505b50858103845289818151815260200191508051906020019080838360005b838110156101ae578082015181840152602081019050610193565b50505050905090810190601f1680156101db5780820380516001836020036101000a031916815260200191505b50858103835288818151815260200191508051906020019080838360005b838110156102145780820151818401526020810190506101f9565b50505050905090810190601f1680156102415780820380516001836020036101000a031916815260200191505b50858103825287818151815260200191508051906020019080838360005b8381101561027a57808201518184015260208101905061025f565b50505050905090810190601f1680156102a75780820380516001836020036101000a031916815260200191505b509a505050505050505050505060405180910390f35b6102c5610e61565b6040518082815260200191505060405180910390f35b610307600480360360208110156102f157600080fd5b8101908080359060200190929190505050610e67565b60405180858152602001806020018060200180602001848103845287818151815260200191508051906020019080838360005b8381101561035557808201518184015260208101905061033a565b50505050905090810190601f1680156103825780820380516001836020036101000a031916815260200191505b50848103835286818151815260200191508051906020019080838360005b838110156103bb5780820151818401526020810190506103a0565b50505050905090810190601f1680156103e85780820380516001836020036101000a031916815260200191505b50848103825285818151815260200191508051906020019080838360005b83811015610421578082015181840152602081019050610406565b50505050905090810190601f16801561044e5780820380516001836020036101000a031916815260200191505b5097505050505050505060405180910390f35b61048d6004803603602081101561047757600080fd5b810190808035906020019092919050505061105f565b6040518085815260200180602001806020018473ffffffffffffffffffffffffffffffffffffffff1673ffffffffffffffffffffffffffffffffffffffff168152602001838103835286818151815260200191508051906020019080838360005b838110156105095780820151818401526020810190506104ee565b50505050905090810190601f1680156105365780820380516001836020036101000a031916815260200191505b50838103825285818151815260200191508051906020019080838360005b8381101561056f578082015181840152602081019050610554565b50505050905090810190601f16801561059c5780820380516001836020036101000a031916815260200191505b50965050505050505060405180910390f35b6106fe600480360360408110156105c457600080fd5b81019080803590602001906401000000008111156105e157600080fd5b8201836020820111156105f357600080fd5b8035906020019184600183028401116401000000008311171561061557600080fd5b91908080601f016020809104026020016040519081016040528093929190818152602001838380828437600081840152601f19601f8201169050808301925050505050505091929192908035906020019064010000000081111561067857600080fd5b82018360208201111561068a57600080fd5b803590602001918460018302840111640100000000831117156106ac57600080fd5b91908080601f016020809104026020016040519081016040528093929190818152602001838380828437600081840152601f19601f8201169050808301925050505050505091929192905050506111df565b005b610708611434565b6040518082815260200191505060405180910390f35b61072661143a565b6040518082815260200191505060405180910390f35b6109ba6004803603608081101561075257600080fd5b810190808035906020019064010000000081111561076f57600080fd5b82018360208201111561078157600080fd5b803590602001918460018302840111640100000000831117156107a357600080fd5b91908080601f016020809104026020016040519081016040528093929190818152602001838380828437600081840152601f19601f8201169050808301925050505050505091929192908035906020019064010000000081111561080657600080fd5b82018360208201111561081857600080fd5b8035906020019184600183028401116401000000008311171561083a57600080fd5b91908080601f016020809104026020016040519081016040528093929190818152602001838380828437600081840152601f19601f8201169050808301925050505050505091929192908035906020019064010000000081111561089d57600080fd5b8201836020820111156108af57600080fd5b803590602001918460018302840111640100000000831117156108d157600080fd5b91908080601f016020809104026020016040519081016040528093929190818152602001838380828437600081840152601f19601f8201169050808301925050505050505091929192908035906020019064010000000081111561093457600080fd5b82018360208201111561094657600080fd5b8035906020019184600183028401116401000000008311171561096857600080fd5b91908080601f016020809104026020016040519081016040528093929190818152602001838380828437600081840152601f19601f820116905080830192505050505050509192919290505050611440565b005b610ba3600480360360608110156109d257600080fd5b81019080803590602001906401000000008111156109ef57600080fd5b820183602082011115610a0157600080fd5b80359060200191846001830284011164010000000083111715610a2357600080fd5b91908080601f016020809104026020016040519081016040528093929190818152602001838380828437600081840152601f19601f82011690508083019250505050505050919291929080359060200190640100000000811115610a8657600080fd5b820183602082011115610a9857600080fd5b80359060200191846001830284011164010000000083111715610aba57600080fd5b91908080601f016020809104026020016040519081016040528093929190818152602001838380828437600081840152601f19601f82011690508083019250505050505050919291929080359060200190640100000000811115610b1d57600080fd5b820183602082011115610b2f57600080fd5b80359060200191846001830284011164010000000083111715610b5157600080fd5b91908080601f016020809104026020016040519081016040528093929190818152602001838380828437600081840152601f19601f8201169050808301925050505050505091929192905050506117d1565b005b6003602052806000526040600020600091509050806000015490806001018054600181600116156101000203166002900480601f016020809104026020016040519081016040528092919081815260200182805460018160011615610100020316600290048015610c575780601f10610c2c57610100808354040283529160200191610c57565b820191906000526020600020905b815481529060010190602001808311610c3a57829003601f168201915b505050505090806002018054600181600116156101000203166002900480601f016020809104026020016040519081016040528092919081815260200182805460018160011615610100020316600290048015610cf55780601f10610cca57610100808354040283529160200191610cf5565b820191906000526020600020905b815481529060010190602001808311610cd857829003601f168201915b505050505090806003018054600181600116156101000203166002900480601f016020809104026020016040519081016040528092919081815260200182805460018160011615610100020316600290048015610d935780601f10610d6857610100808354040283529160200191610d93565b820191906000526020600020905b815481529060010190602001808311610d7657829003601f168201915b505050505090806004018054600181600116156101000203166002900480601f016020809104026020016040519081016040528092919081815260200182805460018160011615610100020316600290048015610e315780601f10610e0657610100808354040283529160200191610e31565b820191906000526020600020905b815481529060010190602001808311610e1457829003601f168201915b5050505050908060050160009054906101000a900473ffffffffffffffffffffffffffffffffffffffff16905086565b60005481565b6005602052806000526040600020600091509050806000015490806001018054600181600116156101000203166002900480601f016020809104026020016040519081016040528092919081815260200182805460018160011615610100020316600290048015610f195780601f10610eee57610100808354040283529160200191610f19565b820191906000526020600020905b815481529060010190602001808311610efc57829003601f168201915b505050505090806002018054600181600116156101000203166002900480601f016020809104026020016040519081016040528092919081815260200182805460018160011615610100020316600290048015610fb75780601f10610f8c57610100808354040283529160200191610fb7565b820191906000526020600020905b815481529060010190602001808311610f9a57829003601f168201915b505050505090806003018054600181600116156101000203166002900480601f0160208091040260200160405190810160405280929190818152602001828054600181600116156101000203166002900480156110555780601f1061102a57610100808354040283529160200191611055565b820191906000526020600020905b81548152906001019060200180831161103857829003601f168201915b5050505050905084565b6004602052806000526040600020600091509050806000015490806001018054600181600116156101000203166002900480601f0160208091040260200160405190810160405280929190818152602001828054600181600116156101000203166002900480156111115780601f106110e657610100808354040283529160200191611111565b820191906000526020600020905b8154815290600101906020018083116110f457829003601f168201915b505050505090806002018054600181600116156101000203166002900480601f0160208091040260200160405190810160405280929190818152602001828054600181600116156101000203166002900480156111af5780601f10611184576101008083540402835291602001916111af565b820191906000526020600020905b81548152906001019060200180831161119257829003601f168201915b5050505050908060030160009054906101000a900473ffffffffffffffffffffffffffffffffffffffff16905084565b60008251116111ed57600080fd5b60008151116111fb57600080fd5b600160008154809291906001019190505550604051806080016040528060015481526020018381526020018281526020013373ffffffffffffffffffffffffffffffffffffffff16815250600460006001548152602001908152602001600020600082015181600001556020820151816001019080519060200190611281929190611a2e565b50604082015181600201908051906020019061129e929190611a2e565b5060608201518160030160006101000a81548173ffffffffffffffffffffffffffffffffffffffff021916908373ffffffffffffffffffffffffffffffffffffffff1602179055509050507fa77ed32c6dadaea3962fe53a48fba9ed4955ef1d0a98e8c08dc8e17ddcd9df036001548383336040518085815260200180602001806020018473ffffffffffffffffffffffffffffffffffffffff1673ffffffffffffffffffffffffffffffffffffffff168152602001838103835286818151815260200191508051906020019080838360005b8381101561138c578082015181840152602081019050611371565b50505050905090810190601f1680156113b95780820380516001836020036101000a031916815260200191505b50838103825285818151815260200191508051906020019080838360005b838110156113f25780820151818401526020810190506113d7565b50505050905090810190601f16801561141f5780820380516001836020036101000a031916815260200191505b50965050505050505060405180910390a15050565b60015481565b60025481565b600084511161144e57600080fd5b600083511161145c57600080fd5b600082511161146a57600080fd5b600081511161147857600080fd5b60008081548092919060010191905055506040518060c0016040528060005481526020018581526020018481526020018381526020018281526020013373ffffffffffffffffffffffffffffffffffffffff168152506003600080548152602001908152602001600020600082015181600001556020820151816001019080519060200190611508929190611a2e565b506040820151816002019080519060200190611525929190611a2e565b506060820151816003019080519060200190611542929190611a2e565b50608082015181600401908051906020019061155f929190611a2e565b5060a08201518160050160006101000a81548173ffffffffffffffffffffffffffffffffffffffff021916908373ffffffffffffffffffffffffffffffffffffffff1602179055509050507f572187796b114511853bfeadb6f084e0e2dfb64d591edb6815a21f0df178c6e3600054858585853360405180878152602001806020018060200180602001806020018673ffffffffffffffffffffffffffffffffffffffff1673ffffffffffffffffffffffffffffffffffffffff16815260200185810385528a818151815260200191508051906020019080838360005b8381101561165757808201518184015260208101905061163c565b50505050905090810190601f1680156116845780820380516001836020036101000a031916815260200191505b50858103845289818151815260200191508051906020019080838360005b838110156116bd5780820151818401526020810190506116a2565b50505050905090810190601f1680156116ea5780820380516001836020036101000a031916815260200191505b50858103835288818151815260200191508051906020019080838360005b83811015611723578082015181840152602081019050611708565b50505050905090810190601f1680156117505780820380516001836020036101000a031916815260200191505b50858103825287818151815260200191508051906020019080838360005b8381101561178957808201518184015260208101905061176e565b50505050905090810190601f1680156117b65780820380516001836020036101000a031916815260200191505b509a505050505050505050505060405180910390a150505050565b60008351116117df57600080fd5b60008251116117ed57600080fd5b60008151116117fb57600080fd5b600260008154809291906001019190505550604051806080016040528060025481526020018481526020018381526020018281525060056000600254815260200190815260200160002060008201518160000155602082015181600101908051906020019061186b929190611a2e565b506040820151816002019080519060200190611888929190611a2e565b5060608201518160030190805190602001906118a5929190611a2e565b509050507f5ad179d01d23ef9eab9f2362f12472351c55563d25320bf1cdeb8f7e0e5e80f360025484848460405180858152602001806020018060200180602001848103845287818151815260200191508051906020019080838360005b8381101561191e578082015181840152602081019050611903565b50505050905090810190601f16801561194b5780820380516001836020036101000a031916815260200191505b50848103835286818151815260200191508051906020019080838360005b83811015611984578082015181840152602081019050611969565b50505050905090810190601f1680156119b15780820380516001836020036101000a031916815260200191505b50848103825285818151815260200191508051906020019080838360005b838110156119ea5780820151818401526020810190506119cf565b50505050905090810190601f168015611a175780820380516001836020036101000a031916815260200191505b5097505050505050505060405180910390a1505050565b828054600181600116156101000203166002900490600052602060002090601f016020900481019282601f10611a6f57805160ff1916838001178555611a9d565b82800160010185558215611a9d579182015b82811115611a9c578251825591602001919060010190611a81565b5b509050611aaa9190611aae565b5090565b611ad091905b80821115611acc576000816000905550600101611ab4565b5090565b9056fea265627a7a72315820207b4545e3f482fe35e45acfa24cdc08d431de10643e407aa0d7c06a1d7b090764736f6c63430005100032",
  "source": "pragma solidity ^0.5.0;\n\ncontract Certify {\n    uint public registrationCount = 0;\n    uint public globalCertCount = 0;\n    uint public companyCertCount = 0;\n\n    struct Student{\n      uint id;\n      string profile;\n      string uid;\n      string name;\n      string email;\n      address wallet;\n    }\n\n    mapping(uint => Student) public students;\n\n    event register(\n      uint id,\n      string profile,\n      string uid,\n      string name,\n      string email,\n      address wallet\n    );\n\n    struct certificate{\n      uint certCount;\n      string uid;\n      string certHash;\n      address uploader;\n    }\n\n    mapping(uint => certificate) public certificates;\n\n    event store(\n      uint certCount,\n      string uid,\n      string certHash,\n      address uploader\n    );\n\n    struct company{\n      uint count;\n      string suid;\n      string cuid;\n      string compCertHash;\n    }\n\n    mapping(uint => company) public companyCert;\n\n    event sendCert (\n      uint count,\n      string suid,\n      string cuid,\n      string compCertHash\n    );\n\n\n    constructor() public {\n      //Register(\"Shrishti\",\"shrishtig797@gmail.com\");\n    }\n\n    function Register(string memory _profile, string memory _uid,string memory _name, string memory _email) public {\n\n          //Check if name and email are empty\n          require(bytes(_profile).length >0 );\n          require(bytes(_uid).length >0 );\n          require(bytes(_name).length >0 );\n          require(bytes(_email).length >0 );\n\n          //Increase Registration Count\n          registrationCount ++;\n\n          //Create Event\n          students[registrationCount] = Student(registrationCount, _profile, _uid, _name, _email, msg.sender);\n\n          //Trigger Event\n          emit register(registrationCount, _profile, _uid, _name, _email, msg.sender);\n    }\n\n\n    function Upload(string memory _uid, string memory _certHash) public {\n\n          //Check if uid and certHash are empty\n          require(bytes(_uid).length >0 );\n          require(bytes(_certHash).length >0 );\n\n          //Increase globalCertCount\n          globalCertCount ++;\n\n          //Create event\n          certificates[globalCertCount] = certificate(globalCertCount, _uid, _certHash, msg.sender);\n\n          //Trigger event\n          emit store(globalCertCount, _uid, _certHash, msg.sender);\n\n    }\n\n    function Send(string memory _cuid, string memory _suid, string memory _compCertHash) public {\n      //Check if uid and certHash are empty\n      require(bytes(_cuid).length >0 );\n      require(bytes(_suid).length >0 );\n      require(bytes(_compCertHash).length >0 );\n\n      //Increase globalCertCount\n      companyCertCount ++;\n\n      //Create event\n      companyCert[companyCertCount] = company(companyCertCount, _cuid, _suid, _compCertHash);\n\n      //Trigger event\n      emit sendCert(companyCertCount, _cuid, _suid, _compCertHash);\n    }\n\n}\n",
  "sourcePath": "/home/shrish/Projects/cert_start/src/contracts/Certify.sol",
  "compiler": {
    "name": "solc",
    "version": "0.5.16+commit.9c3226ce.Emscripten.clang"
  },
  "schemaVersion": "3.0.23",
  "updatedAt": "2020-04-13T15:05:15.488Z",
  "networkType": "ethereum",
  "devdoc": {
    "methods": {}
  },
  "userdoc": {
    "methods": {}
  }
}