{
  "contractName": "Certificate",
  "abi": [
    {
      "inputs": [],
      "payable": false,
      "stateMutability": "nonpayable",
      "type": "constructor"
    },
    {
      "anonymous": false,
      "inputs": [
        {
          "indexed": false,
          "internalType": "uint256",
          "name": "certCount",
          "type": "uint256"
        },
        {
          "indexed": false,
          "internalType": "string",
          "name": "uid",
          "type": "string"
        },
        {
          "indexed": false,
          "internalType": "string",
          "name": "certHash",
          "type": "string"
        }
      ],
      "name": "store",
      "type": "event"
    },
    {
      "constant": true,
      "inputs": [],
      "name": "certHash",
      "outputs": [
        {
          "internalType": "string",
          "name": "",
          "type": "string"
        }
      ],
      "payable": false,
      "stateMutability": "view",
      "type": "function"
    },
    {
      "constant": true,
      "inputs": [
        {
          "internalType": "uint256",
          "name": "",
          "type": "uint256"
        }
      ],
      "name": "certificates",
      "outputs": [
        {
          "internalType": "uint256",
          "name": "certCount",
          "type": "uint256"
        },
        {
          "internalType": "string",
          "name": "uid",
          "type": "string"
        },
        {
          "internalType": "string",
          "name": "certHash",
          "type": "string"
        }
      ],
      "payable": false,
      "stateMutability": "view",
      "type": "function"
    },
    {
      "constant": true,
      "inputs": [],
      "name": "globalCertCount",
      "outputs": [
        {
          "internalType": "uint256",
          "name": "",
          "type": "uint256"
        }
      ],
      "payable": false,
      "stateMutability": "view",
      "type": "function"
    },
    {
      "constant": false,
      "inputs": [
        {
          "internalType": "string",
          "name": "_uid",
          "type": "string"
        },
        {
          "internalType": "string",
          "name": "_certHash",
          "type": "string"
        }
      ],
      "name": "Upload",
      "outputs": [],
      "payable": false,
      "stateMutability": "nonpayable",
      "type": "function"
    }
  ],
  "bytecode": "0x60806040526040518060200160405280600081525060009080519060200190610029929190610041565b50600060015534801561003b57600080fd5b506100e6565b828054600181600116156101000203166002900490600052602060002090601f016020900481019282601f1061008257805160ff19168380011785556100b0565b828001600101855582156100b0579182015b828111156100af578251825591602001919060010190610094565b5b5090506100bd91906100c1565b5090565b6100e391905b808211156100df5760008160009055506001016100c7565b5090565b90565b6107f4806100f56000396000f3fe608060405234801561001057600080fd5b506004361061004c5760003560e01c80634c0822f214610051578063663b3e22146100d45780638f296fe9146101ee578063ab358d4514610340575b600080fd5b61005961035e565b6040518080602001828103825283818151815260200191508051906020019080838360005b8381101561009957808201518184015260208101905061007e565b50505050905090810190601f1680156100c65780820380516001836020036101000a031916815260200191505b509250505060405180910390f35b610100600480360360208110156100ea57600080fd5b81019080803590602001909291905050506103fc565b604051808481526020018060200180602001838103835285818151815260200191508051906020019080838360005b8381101561014a57808201518184015260208101905061012f565b50505050905090810190601f1680156101775780820380516001836020036101000a031916815260200191505b50838103825284818151815260200191508051906020019080838360005b838110156101b0578082015181840152602081019050610195565b50505050905090810190601f1680156101dd5780820380516001836020036101000a031916815260200191505b509550505050505060405180910390f35b61033e6004803603604081101561020457600080fd5b810190808035906020019064010000000081111561022157600080fd5b82018360208201111561023357600080fd5b8035906020019184600183028401116401000000008311171561025557600080fd5b91908080601f016020809104026020016040519081016040528093929190818152602001838380828437600081840152601f19601f820116905080830192505050505050509192919290803590602001906401000000008111156102b857600080fd5b8201836020820111156102ca57600080fd5b803590602001918460018302840111640100000000831117156102ec57600080fd5b91908080601f016020809104026020016040519081016040528093929190818152602001838380828437600081840152601f19601f820116905080830192505050505050509192919290505050610556565b005b610348610714565b6040518082815260200191505060405180910390f35b60008054600181600116156101000203166002900480601f0160208091040260200160405190810160405280929190818152602001828054600181600116156101000203166002900480156103f45780601f106103c9576101008083540402835291602001916103f4565b820191906000526020600020905b8154815290600101906020018083116103d757829003601f168201915b505050505081565b6002602052806000526040600020600091509050806000015490806001018054600181600116156101000203166002900480601f0160208091040260200160405190810160405280929190818152602001828054600181600116156101000203166002900480156104ae5780601f10610483576101008083540402835291602001916104ae565b820191906000526020600020905b81548152906001019060200180831161049157829003601f168201915b505050505090806002018054600181600116156101000203166002900480601f01602080910402602001604051908101604052809291908181526020018280546001816001161561010002031660029004801561054c5780601f106105215761010080835404028352916020019161054c565b820191906000526020600020905b81548152906001019060200180831161052f57829003601f168201915b5050505050905083565b600082511161056457600080fd5b600081511161057257600080fd5b60016000815480929190600101919050555060405180606001604052806001548152602001838152602001828152506002600060015481526020019081526020016000206000820151816000015560208201518160010190805190602001906105dc92919061071a565b5060408201518160020190805190602001906105f992919061071a565b509050507f17cd0210d0a76951b4081b27b66d4e751a850325357035cae25568a6203c190a6001548383604051808481526020018060200180602001838103835285818151815260200191508051906020019080838360005b8381101561066d578082015181840152602081019050610652565b50505050905090810190601f16801561069a5780820380516001836020036101000a031916815260200191505b50838103825284818151815260200191508051906020019080838360005b838110156106d35780820151818401526020810190506106b8565b50505050905090810190601f1680156107005780820380516001836020036101000a031916815260200191505b509550505050505060405180910390a15050565b60015481565b828054600181600116156101000203166002900490600052602060002090601f016020900481019282601f1061075b57805160ff1916838001178555610789565b82800160010185558215610789579182015b8281111561078857825182559160200191906001019061076d565b5b509050610796919061079a565b5090565b6107bc91905b808211156107b85760008160009055506001016107a0565b5090565b9056fea265627a7a72315820ebef8ae0530af2c704408f51c20a7f33b0a3682496eb8da0957d736ff6cc7c2564736f6c63430005100032",
  "source": "pragma solidity ^0.5.0;\n\ncontract Certificate {\n  string public certHash = \"\";\n  uint public globalCertCount = 0;\n\n\n  struct certificate{\n    uint certCount;\n    string uid;\n    string certHash;\n  }\n\n  mapping(uint => certificate) public certificates;\n\n  event store(\n    uint certCount,\n    string uid,\n    string certHash\n  );\n\n\n  constructor() public {\n    //Register(\"Shrishti\",\"shrishtig797@gmail.com\");\n  }\n\n  function Upload(string memory _uid, string memory _certHash) public {\n\n    //Check if uid and certHash are empty\n    require(bytes(_uid).length >0 );\n    require(bytes(_certHash).length >0 );\n\n    //Increase globalCertCount\n    globalCertCount ++;\n\n    //Create event\n    certificates[globalCertCount] = certificate(globalCertCount, _uid, _certHash);\n\n    //Trigger event\n    emit store(globalCertCount, _uid, _certHash);\n\n  }\n\n  /* function get() public view returns (string memory) {\n    return certHash;\n  } */\n}\n",
  "sourcePath": "/home/shrish/Projects/cert_start/src/contracts/Certificate.sol",
  "compiler": {
    "name": "solc",
    "version": "0.5.16+commit.9c3226ce.Emscripten.clang"
  },
  "schemaVersion": "3.0.23",
  "updatedAt": "2020-04-05T02:17:04.009Z",
  "networkType": "ethereum",
  "devdoc": {
    "methods": {}
  },
  "userdoc": {
    "methods": {}
  }
}